:020000044000BA
:100000006F200851130000001300000013000000CF
:100010001300000013000000130000001300000094
:10002000732700FCF32700BCB3F7E70093F7170032
:1000300063940700678000006F2048559307000015
:10004000739007BC736004306F20486F9305050000
:1000500037A50840130101F81305051B232E1106CF
:10006000232C8106232A91062328210723263107E2
:10007000EF40987FEF40987E9377F50F13040000D0
:100080009304D0001309A000930900056F008002BB
:1000900063862703130414001307C1003307870086
:1000A000A30FF7FEEF50C800EF40587B9377F50F92
:1000B0006306340113850700E39C97FC9307010650
:1000C000338487001305A000230604FAEF40587E0E
:1000D0001305C1001306000093050000EF40181F30
:1000E0008320C107032481078324410703290107D3
:1000F0008329C106130101086780000037E3FFFF71
:10010000130101FE37A50840232E11001305851B9E
:1001100033016100EF40987AF32800B037270000E0
:10012000930601013307D700B7E7FFFFB307F700D6
:100130002326F100138507009306000093050000B5
:1001400013060700130880008327C10003A70700D8
:10015000938747003307D70023AEE7FEE398C7FE37
:10016000832705009386160013054500B385F50027
:10017000E39C06FD732600B0330616419356F64104
:100180003723000093962601330161008320C101CB
:1001900093D62601B386C60037A5084093D6E6401D
:1001A0001305C51C130101026F40186C37E3FFFFF4
:1001B000130101FE37A50840232E11001305052069
:1001C00033016100EF40986F732800B037270000BB
:1001D000930601013307D700B7E7FFFFB307F70026
:1001E0002326F10013860700B726000093070101BC
:1001F0001307000093050000B386F6001305800086
:100200008327C10023A0E70093874700E39CD7FE24
:10021000832706001307170013064600B385F50071
:10022000E310A7FE732600B0330606419356F6414D
:100230003723000093962601330161008320C1011A
:1002400093D62601B386C60037A5084093D6E6406C
:1002500013050521130101026F40186137E3FFFF09
:10026000130101FE37A50840232E11001305C523F5
:1002700033016100EF409864732800B03727000015
:10028000930601013307D700B7E7FFFFB307F70075
:100290002326F1001385071013860700930500003D
:1002A000930607008327C10003A70700938707026F
:1002B000B385E500E39AD7FE2320B6001306460077
:1002C000E312A6FE732600B0330606419356F641AC
:1002D0003723000093962601330161008320C1017A
:1002E00093D62601B386C60037A5084093D6E640CC
:1002F00013054525130101026F401857130101FE34
:1003000037E3FFFF37A50840232E11001305C5274B
:1003100033016100EF40985A93060101372700002E
:100320003307D700B7E7FFFFB307F700B7160000A2
:100330002326F100B386D7009305000003A707002A
:1003400093874700B385E500E39AD7FE732500B095
:100350000326C1008327C10003A707009387470036
:10036000B385E500E39AD7FE2320B60013064600C6
:10037000E312F6FE732600B03306A6409356F6410C
:10038000372300009396C600330161008320C1012A
:1003900093D6C600B386C60037A5084093D646411B
:1003A00013054525130101026F40184C37E3FFFF89
:1003B000130101FE37A50840232E1100130545291E
:1003C00033016100EF40984F732800B037270000D9
:1003D000930601013307D700B7E7FFFFB307F70024
:1003E0002326F100138507021386070093050000FA
:1003F000930607008327C10003A7070093874700E0
:10040000B385E500E39AD7FE2320B6001306460025
:10041000E312A6FE732600B0330606419356F6415A
:100420003723000093962601330161008320C10128
:1004300093D62601B386C60037A5084093D6E6407A
:1004400013054525130101026F40184237750A4014
:10045000130545506F00500437A50840130101FAF9
:100460001305453D23263105232E7103232C8103DB
:10047000232A91032328A103232E1104232C810472
:10048000232A9104232821052324410523225105F1
:10049000232061052326B103EF405842B7870A4065
:1004A000138DC79FB7870A409387C70D232AF10092
:1004B000B717000093870780232CF100B7A70840E7
:1004C0009387873F2322F10093071000B387A7414A
:1004D00093090000930C0040130C0000930B0040A4
:1004E000232EF100B7870A401385C79F1306006EBD
:1004F00093050002EF80180F37840A401305C40DDE
:100500001306006E9305F007EF80D80DB307704116
:100510002320F1009307A0052328F1009307004052
:10052000330B80412324F100232601009300400176
:100530001309E004B704B0FF1304C40DB70330007F
:100540000327C1000326810083278101338AEB0240
:10055000930E4014330FF6009306004093070000FB
:10056000B30FEC0293720AC037075000135AAA4027
:10057000B382E200B38ACC0293DFAF4093DAAA40A1
:10058000338EE703139627003306F60013972600F1
:100590003307D700135686403386C640135787402B
:1005A0003307F700938EFEFF1358AE4033850B03DD
:1005B0003383E6031355A5403385AF401353A3405F
:1005C000B3886C02B385A90233080C03B385150107
:1005D00093984500B388B84033085800B3C808035F
:1005E000938DB800B305C60263EEB00B9388C800C4
:1005F000939D2800B3881D01B30D9800939848007F
:1006000093DDFD40939D8D0193DD8D413383690220
:100610003385AC023305A340131345003303A340D5
:10062000131313003348030313058802B388A8008B
:100630001308780233051401636609079397B7001E
:10064000330EFE4083070500135EAE40B3081D0164
:1006500063DAFD0483270100B386DA022300B501C3
:10066000B307FE0293D7A740B387F701330E6E039B
:10067000B3873703B307FE40B387D74093D7A7406C
:10068000B387474193D7774093C6F7FF93D6F64198
:10069000B3F7D70083264100B387F60083C707006E
:1006A0002380F800B306E702B387B340B387D7408F
:1006B00093D7B740B306F602B307F70293D6A64026
:1006C00093D7A740E39E0EEA8326C100032681004C
:1006D000139736003307D700931736001357774028
:1006E0003307E640B387C7000326010193D777405D
:1006F000B387D700B306E7029305F6FF2328B100BE
:100700003386F702B386D340B386C64093D6B6404D
:100710003307D702B387D7021357A7402324E1003A
:1007200093D7A7402326F100E39C05E01305A00022
:100730000329C101EF40D8170327410113040D001D
:1007400093040005B307890063048702B3E79702A7
:100750001305A0006384070003051400EF4058153B
:100760000327410113041400B3078900E31087FE37
:1007700013962B0013972C0033067601330797014D
:1007800093162C00B3868601939729001356764062
:1007900013578740330CCC40B3873701B389E94006
:1007A00013D77640B30B7701B386390393D78740CD
:1007B000B38C9701B707300033078C0333867B0374
:1007C0003387E740B387D740B3869C033307C740DE
:1007D0001357B740B387D74093D7B740330CEC02D9
:1007E000B38BEB02135CAC40B389F90293DBAB40F3
:1007F000B38CFC0293D9A94093DCAC40EF10D858DD
:10080000631A050037A508401305053FEF40180B94
:100810006FF05FCD032481058320C105832441054A
:10082000032901058329C104032A8104832A410481
:10083000032B0104832BC103032C8103832C41036D
:10084000032D0103832DC102130101066F4018011E
:10085000130101FF23261100EFF04FFEB7A508405A
:1008600037A508409385854013050541EF40C87FB3
:1008700037750A401305C557EF0000428320C100B9
:1008800013050000130101016780000037750A405D
:10089000130545626F004040130101FF232611003C
:1008A000EF40C87B8320C1001375F50F13010101D0
:1008B00067800000130101FF23248100232611001B
:1008C0001304050003450500630A05001304140022
:1008D000EF40087E03450400E31A05FE8320C100B3
:1008E000032481001301010167800000678000007C
:1008F00037750A401305C5656F00003A37A50840F3
:10090000130101FF130545552326110023248100FF
:100910002322910023202101EF40487A37A5084087
:100920001305C556EFF08FF21304050037A50840F4
:1009300013054558EFF08FF1930405000B08A40050
:1009400037A908409306050093070800130708001D
:1009500013060400930500001305C959EF40C87041
:100960000B18940093051000930708001307080064
:1009700093860400130604001305C959EF40C86E9E
:100980000B28940093052000930708001307080024
:1009900093860400130604001305C959EF40C86C80
:1009A0000B389400930530009307080013070800E4
:1009B00093860400130604001305C959EF40C86A62
:1009C0000B489400930540009307080013070800A4
:1009D00093860400130604001305C959EF40C86844
:1009E0000B58940093055000930708001307080064
:1009F00093860400130604001305C959EF40C86626
:100A00000B68940093056000930708001307080023
:100A100093860400130604001305C959EF40C86407
:100A20000B78940013060400032481008320C10086
:100A3000938604001305C95983244100032901004A
:100A400093057000930708001307080013010101C4
:100A50006F40886137A50840130101FE1305455E0C
:100A6000232E1100232C8100232A91002328210109
:100A70002326310123244101EF40486437A5084073
:100A800013050560B709010037890000B714050098
:100A9000EF40C8621304000037AA08409389F9FFA9
:100AA000130939109384E4A1334634018B06C40042
:100AB0000B17C4008B27C4009305040013054A6379
:100AC00033042401EF40485AE31094FE8320C1010F
:100AD0000324810183244101032901018329C100E9
:100AE000032A81001301010267800000130101FA4B
:100AF00037A50840232E7103232C81031305456677
:100B0000370C0100B70B100B232C8104232E11048A
:100B1000232A910423282105232631052324410576
:100B20002322510523206105232A91032328A103B1
:100B30002326B10313040000EF404858130CFCFFB8
:100B4000232E0100938B3B230329C101372B17FF71
:100B5000930D0000130B3B7F8B09B4010B1AB401FA
:100B60008B2AB4019305000093860D001306040040
:100B700013050000EF10D01693860D001306040035
:100B800093050000930C050013051000EF1050159D
:100B90009304050093860D001306040093050000DE
:100BA00013052000EF10D013B7A70840130D050060
:100BB00013091900138587686394990163049A0CDB
:100BC000EF40C84F37A5084013860D0093880A00F0
:100BD0001388040093070A0013870C00938609000A
:100BE000930504002320A1011305C56CEF40C847FD
:100BF000B3778901B38D7D01638A0706E39E6DF5A6
:100C00000327C101B7077100938757003304F4002D
:100C100013071734B71722FF9387A7B4232EE100D9
:100C2000E314F4F2032481058320C10583244105E4
:100C30008329C104032A8104832A4104032B01046C
:100C4000832BC103032C8103832C4103032D010358
:100C5000832DC102930509000329010537A508402A
:100C60001305C573130101066F400840B7A708407C
:100C70009305090013854772EF40083FE39E6DED31
:100C80006FF01FF8E39EAAF36FF09FF637750A40E6
:100C9000130545696F004000130101F723229108F5
:100CA00023202109232E3107232C4107232A510712
:100CB0002328610723267107232481072322910714
:100CC0002320A1072326110823248108232EB10500
:100CD000130A0500930A8500B7AB084037AB0840FC
:100CE000B7A908409304A0001309D00037AC08400E
:100CF00037AD0840B7AC084003250A0013840A004A
:100D0000EF80081213060500930D05009305D0032C
:100D100013050100EF80080D83250A0093070105E4
:100D2000B38DB7011306010013850B7C23880DFAE0
:100D3000EF40883383458A00638E05000326440014
:100D40001385097D13040401EF4008328345040034
:100D5000E39605FE83254A0013058B7CEF40C830DF
:100D6000EFF09FB313040500E30C95FEE30A25FFA3
:100D7000EF40083483478A00638C0700938D0A0094
:100D8000638E870083C70D01938D0D01E39A07FEE3
:100D90001305CC7DEF40482D6FF01FF61305A00022
:100DA000EF40083183C7CD006392070283A54D0051
:100DB00013058D7EEF40482B83A78D00E780070049
:100DC00013858C7FEF40882F6FF01FF38320C108BD
:100DD0000324810883244108032901088329C107CA
:100DE000032A8107832A4107032B0107832BC106AE
:100DF000032C8106832C4106032D0106832DC1059A
:100E00001301010967800000130101F6232C8108FA
:100E100037940940232A91072328A107232E11087C
:100E2000232A910823282109232631092324410953
:100E30002322510923206109232E7107232C8107C6
:100E40002326B10713044438130D000023260102A2
:100E5000B7BC08406F004010232EF102B7B708401E
:100E600093050D001385C780232ED1052326C103CA
:100E7000232C7104232A51042328F1052326E1059C
:100E8000232461042322110523200105232CE102E0
:100E9000232AD1022328C102EF40081D83238105A4
:100EA00083224105832F0105032FC104032541023D
:100EB0000323810483284104032801048327C103F9
:100EC000032781038326410303260103B7B50840A6
:100ED0009385C582232A7100232851002326F1011E
:100EE0002324E1012322A1002320610013854C83E8
:100EF000EF40881783278102832EC105032EC1028C
:100F0000B7B508402326F10093080B0093070A00A9
:100F1000232AD1012328C1012324B10123228101E5
:100F20002320710113880A00138709009306090022
:100F3000138604009385058B13854C83EF40C812FC
:100F4000930710002326F102130D1D009307C00024
:100F5000130404016302FD0C03250400EF1048385C
:100F6000B7A708401385C77FEF400810EF10883FF0
:100F7000EF10C83C83057500030605008304440098
:100F80002322B1028305D400830615000307250040
:100F90002324B10283073500030845008308550068
:100FA00003036500030F8500830F95008302A500EE
:100FB0008303B5000309540083096400030A740025
:100FC000830A8400030B9400830BA400030CB40079
:100FD000830DC400030EE400830EF400E31E96E6C6
:100FE000E39C26E7E39AE9E6E318FAE6E3960AE7E4
:100FF000E39468E7E3926BE683254102E31EBCE4D9
:10100000E39CEDE583258102E398BFE4E3165EE40B
:10101000E394D3E56FF05FF38327C1026384070491
:1010200037B508401305C58B032481098320C10906
:1010300083244109032901098329C108032A81085E
:10104000832A4108032B0108832BC107032C810746
:10105000832C4107032D0107832DC1061301010ACB
:101060006F40C80537B508401305858D6FF0DFFB6D
:1010700037B50840130101FD1305458F23261102E2
:10108000EF40C80337850940130505E6EF104825F2
:1010900037A508401305C57FEF30187DEF10882C69
:1010A000EF10C8298305B5008308550003084500E3
:1010B0008307350003072500830615000306050096
:1010C000232AB1008305A5002328B10083059500DC
:1010D0002326B100830585002324B1008305750014
:1010E0002322B10003036500B7B5084037B50840B7
:1010F000232061009385459013054583EF30D87612
:101100008320C102130101036780000037B5084046
:10111000130101FD1305059123261102EF30187A02
:1011200037950940130545BDEF10881B37A50840CA
:101130001305C57FEF305873EF10C822EF10082059
:101140008305B50083085500030845008307350073
:10115000030725008306150003060500232AB100B6
:101160008305A5002328B100830595002326B1003F
:10117000830585002324B100830575002322B10077
:1011800003036500B7B5084037B508402320610068
:101190009385459013054583EF30186D8320C10278
:1011A000130101036780000037B50840130101FDFA
:1011B0001305459223261102EF30587037950940E8
:1011C0001305859EEF10C81137A508401305C57F8C
:1011D000EF309869EF100819EF1048168305B50035
:1011E00083085500030845008307350003072500E1
:1011F0008306150003060500232AB1008305A50018
:101200002328B100830595002326B10083058500BE
:101210002324B100830575002322B1000303650078
:10122000B7B5084037B50840232061009385459045
:1012300013054583EF3058638320C1021301010376
:1012400067800000B7770A4083A5477537B5084027
:10125000130101FF130505BB23261100EF00985D64
:101260008320C10037750A401305C56E13010101C3
:101270006FF09FA237950940130101FF1305454404
:1012800023261100EF30585EF32540B03795094012
:1012900013050545EF30585DF32560B037950940DB
:1012A00013050546EF30585CF32500B08320C100DC
:1012B0003795094013050547130101016F30D85ACE
:1012C000130101FF2324810037840A40130404988A
:1012D000832504003795094013050548232611008E
:1012E000EF30985893070000739007B083270400ED
:1012F000130770006364F70237970940939727003C
:101300001307474AB387E70083A7070067800700F2
:1013100093070000739037B1739027B18320C10009
:10132000032481001301010167800000930700007E
:10133000739017B1739007B18320C100032481001B
:10134000130101016780000093070000739057B0FC
:10135000739047B08320C100032481001301010171
:101360006780000093070000739077B0739067B0B8
:101370008320C10003248100130101016780000064
:1013800093070000739097B0739087B08320C100DB
:10139000032481001301010167800000930700000E
:1013A0007390B7B07390A7B08320C100032481006D
:1013B0001301010167800000930700007390D7B00C
:1013C0007390C7B08320C100032481001301010181
:1013D00067800000930700007390F7B07390E7B048
:1013E0008320C100032481001301010167800000F4
:1013F000B7870A401307100023A0E798732660B050
:1014000037950940930510001305454C6F30D845BA
:10141000B7870A4023A00798732640B03795094044
:10142000930500001305454C6F301844130101FF6C
:101430002324810037840A40130404988325040080
:10144000379509401305054E23261100EF30D8418A
:1014500003260400B7870A409387C77B131726002B
:10146000B387E70083A607009305700093861600F4
:1014700023A0D70063E0C502B79709409387874F41
:101480003307F700832707006780070093071000E2
:10149000739037B18320C10003248100130101013F
:1014A0006780000093071000739017B18320C1007C
:1014B00003248100130101016780000093071000DD
:1014C000739057B08320C1000324810013010101F0
:1014D0006780000093071000739077B08320C100ED
:1014E00003248100130101016780000093071000AD
:1014F000739097B08320C100032481001301010180
:1015000067800000930710007390B7B08320C1007C
:10151000032481001301010167800000930710007C
:101520007390D7B08320C10003248100130101010F
:1015300067800000930710007390F7B08320C1000C
:10154000032481001301010167800000130101FFE2
:101550002324810037840A4013040498832504005F
:10156000379509401305855123261100EF30D82FF8
:1015700083270400130770006362F702379709405E
:101580009397270013070753B387E70083A7070044
:101590006780070093070000739037B18320C10074
:1015A00003248100130101016780000093070000FC
:1015B000739017B18320C10003248100130101013E
:1015C0006780000093070000739057B08320C1002C
:1015D00003248100130101016780000093070000CC
:1015E000739077B08320C1000324810013010101AF
:1015F0006780000093070000739097B08320C100BC
:10160000032481001301010167800000930700009B
:101610007390B7B08320C10003248100130101013E
:1016200067800000930700007390D7B08320C1004B
:10163000032481001301010167800000930700006B
:101640007390F7B08320C1000324810013010101CE
:1016500067800000130101FF2324810023229100F1
:1016600023261100938405001304050063940504E8
:10167000B79798009387F76763EEA702B727000034
:101680009387F77063F6A7081305451FB3358500E8
:101690001306803E93060000EF3088121306050003
:1016A000379509409386050013058555EF30D81B03
:1016B0006F00C00337A50700130505123305A4000A
:1016C000B335850037460F00130606249306000045
:1016D000B3859500EF30C80E130605003795094015
:1016E0009386050013050555EF30181813060400FE
:1016F000032481008320C1009386040083244100D9
:101700003795094013058556130101016F30D8152F
:10171000130605003795094093060000130505568A
:10172000EF3098146FF09FFC93070000739057B050
:10173000739047B0739077B0739067B0739097B021
:10174000739087B07390B7B07390A7B07390D7B011
:101750007390C7B07390F7B07390E7B0739017B100
:10176000739007B1739037B1739027B1B7870A4070
:101770009387C77B23A0070023A2070023A40700A9
:1017800023A6070023A8070023AA070023AC07000D
:1017900023AE070067800000130101FF232611001C
:1017A00023248100EFF05FF8B7470F0093870724E9
:1017B000130000009387F7FFE39C07FEB7870A40FA
:1017C0009387C77B03A707001307170023A0E70031
:1017D00013071000731057B037470F001307072483
:1017E000130000001307F7FFE31C07FE731057B048
:1017F00003A747001307170023A2E70013071000F1
:10180000731077B083A5870037470F0013070724AD
:101810001306100093060000731096B0739096B0F4
:101820001307F7FFE31A07FEB7460F009386062457
:10183000B385D50023A4B700731077B003A7C70002
:101840001307170023A6E7007310B6B09305100026
:101850001306000003A707011307170023A8E700DA
:101860007390D5B003A747011307170023AAE70019
:101870007390F5B0130000007310F6B07310D6B07B
:101880009386F6FFE39806FC7390B6B0F32540B05C
:101890003795094013058557EF30087DF32580B053
:1018A0003795094013054559EF30087CF325E0B022
:1018B000379509401305055BEF30087BF325C0B071
:1018C000379509401305C55CEF30087AF325C0B0A1
:1018D000F327E0B037950940B385F5401305855EE1
:1018E000EF3088783795094013054560EF30C877A9
:1018F000F32580B037440F0013040424B3D58502C8
:101900003795094013058560EF300876F325C0B0A0
:10191000F327E0B0B385F540B3D5850203248100F9
:101920008320C100379509401305C56313010101E8
:101930006F308873130101FB2326110423248104D3
:101940002322910423202105232E3103232C41033C
:10195000232A5103232861032326710323248103AF
:10196000232291032320A103232EB101930700001A
:10197000739057B0739077B0739097B07390B7B07F
:101980007390D7B07390F7B0739017B1739037B16D
:101990003795094013050567EF30086D3795094005
:1019A0001305056AEF30486C372C0000B7840A40F5
:1019B000B7990940379998009307FC709384C47BCA
:1019C00013040000B79A0940379B0940379A094031
:1019D000938949701309F9672326F100379D09405F
:1019E0009307700063E6872093172400B3873701BD
:1019F00083A7070067800700732720B103AC0400AA
:101A00009305040013858A6D93171C00B387870123
:101A1000B30DF740EF3048656360B9178327C10005
:101A200063FEB71113854D1F1306803E9306000019
:101A3000B335B501EF20D85813060500938605008D
:101A400013058D55EF30486293050C0013054B6E5E
:101A5000EF308861630E0C0A33D68D038327C100F3
:101A600063F2C7101305461FB335C5009306000087
:101A70001306803EEF20D854130605009386050018
:101A800013058D55EF30485E93850D0013058A6F61
:101A9000EF30885D130414009307800093844400A2
:101AA000E310F4F48320C10403248104832441045B
:101AB000032901048329C103032A8103832A4103E3
:101AC000032B0103832BC102032C8102832C4102CF
:101AD000032D0102832DC101130101056780000060
:101AE000732700B16FF09FF17327E0B06FF01FF123
:101AF0007327C0B06FF09FF07327A0B06FF01FF096
:101B0000732780B06FF09FEF732760B06FF01FEF07
:101B1000B79709401385076FEF30085593850D007F
:101B200013058A6FEF3048541304140093078000A4
:101B300093844400E316F4EA6FF0DFF6B7970940A8
:101B400013860D009306000013850756EF30C85129
:101B500093050C0013054B6EEF300851E30A0CFAA5
:101B600033D68D03B79709409306000013850756B7
:101B7000EF30884F6FF09FFA37A70700930C0712DA
:101B800033859D0137460F00130606249306000097
:101B9000B335B501EF20D842B79B094013060500C5
:101BA0009386050013850B55EF30084C93050C0008
:101BB00013054B6EEF30484BE30C0CF433D68D031A
:101BC000E37EC9E833059601B335C50037460F00FB
:101BD0001306062493060000EF20983E1306050026
:101BE0009386050013850B55EF3008486FF01FF3FF
:101BF000732740B06FF09FE037750A401305857575
:101C00006FF08F8913F6C5FF3306C5001307000078
:101C10006306C50E37339ECCB738871B377854E63A
:101C2000130313D593883859130848B68327050042
:101C300013054500B38767029396F70093D7170102
:101C4000B3E7D700B3871703B3C7E7001397D700ED
:101C500093D73701B367F70013972700B307F7004F
:101C600033870701E314A6FCB3C7E50093F53500FD
:101C7000638C050493061000034706006382D502B7
:101C80008346160013052000939686003307D7007D
:101C90006388A50083462600939606013307D70084
:101CA000B7369ECC938616D53307D7029316F70026
:101CB0001357170133E7E600B736871B938636596B
:101CC0003307D702B3C7E70013D70701B347F700BD
:101CD00037D7EB851307B7A63387E70237B5B2C20C
:101CE000130555E39357D700B3C7E700B387A7029F
:101CF00013D507013345F500678000009387050081
:101D00006FF0DFF683470500130101FE232C8100ED
:101D1000232A91002328210123263101232E11009B
:101D2000232441012322510113072000130405003D
:101D3000938905001309060093840600636EF71665
:101D400037A70940939727001307C791B307F700F8
:101D500083A5070037A5094013050583EF30C83078
:101D600003178400831664000316440083152400BF
:101D700037A5094013058583EF30082F8315A4008C
:101D8000B7AA094013854A84EF30082E8315C40092
:101D900013854A8437AA0940EF30082D8315E400E3
:101DA00013854A84EF30482C8315040113854A8437
:101DB000EF30882B832544011305CA84EF30C82AED
:101DC000832584011305CA84EF30082A8325C401C2
:101DD0001305CA84EF304829832504021305CA84F9
:101DE000EF3088288325440213854A84EF30C827C2
:101DF000832584021305CA84EF3008278325C40293
:101E00001305CA84EF30482683A509006384050EB4
:101E1000930740006398F50C83A5490003A70901C7
:101E200083A6C90003A6890037A5094013050589C3
:101E3000EF308823832509006388050C9307400051
:101E4000639AF50883254900032709018326C90001
:101E50000326890037A5094013050589EF30C820FE
:101E600083A50400638C050A93074000639CF50476
:101E700003A7040183A6C40003A6840083A544002D
:101E800037A5094013050589EF30081E0324810199
:101E90008320C10183244101032901018329C10059
:101EA000032A8100832A410037A50940130585C90B
:101EB000130101026F30481BB7A509409385858245
:101EC0006FF05FE937A5094013054586EF30C81963
:101ED0006FF01FFA37A5094013054586EF30C81883
:101EE0006FF05FF637A5094013054586EF30C81738
:101EF0006FF09FF237A5094013054585EF30C816EE
:101F000083250900E39C05F237A5094013054585A3
:101F1000EF30881583A50400E39805F437A5094040
:101F200013054585EF3048146FF05FF6B7A70940F9
:101F3000130101D89387C79E232E1126232C8126B7
:101F4000232A9126232821272326312723244127AA
:101F50002322512723206127232E712513074100B7
:101F60009388472403A8070003A5470083A587009B
:101F700003A6C70083A60701232007012322A70089
:101F80002324B7002326C7002328D70093874701BF
:101F900013074701E39817FD83A6070083A74700AF
:101FA000130481002320D7002322F70093040000AC
:101FB0009309000037AB094037A90940B7AA094087
:101FC000130AF0FFB7AB09409385040013058B9209
:101FD000EF3088098325440113050400EFF09FC208
:101FE0000326C4FF930605008325440113874A98FE
:101FF0001305C994638CC6041304C401EF30C806EA
:102000008327440193841400E39047FD37A50940DA
:10201000138604009385090013050593EF30C80467
:102020008320C127032481278324412703290127F3
:102030008329C126032A8126832A4126032B0126D0
:10204000832BC125130101286780000013878B941F
:10205000138606001305C9941304C401EF30C800A9
:10206000832744019389190093841400E39E47F564
:102070006FF0DFF9130101FCB7770A40232C8102CE
:1020800003A40706B7770A402328210303A94706BC
:10209000B7770A402326310383A98706232A9102B2
:1020A000232441032322510323206103232E7101A2
:1020B000232A91012328A1012326B101232E1102F5
:1020C000232C8101130A0000930B0002130B040060
:1020D00037AD0940B7A40940B7AC0940B70A008042
:1020E000930D040013050B00EF100849130C0500B5
:1020F000EF1008339305050013050B00EF00583669
:1021000093050900EF009836EF1008471307050004
:1021100093060C0013860B009305CD981385049944
:10212000EF2098741307D03893064000130600027E
:1021300093850C9A13850499EF20187393850900F1
:1021400013050400EF00980C93050000130C050024
:10215000EF00C873130B00026356050033CC8A01ED
:10216000130BD00213050C00EF100841930B050070
:10217000EF10082B9305050013050C00EF00582EF7
:1021800093050900EF00982EEF10083FB7A709400C
:102190001307050013060B009385479A93860B00DF
:1021A00013850499EF20586C9385090013050400EA
:1021B000EF00D82B93050000130C0500EF00086D0D
:1021C000130B00026356050033CC8A01130BD002B7
:1021D00013050C00EF10483A930B0500EF1048244C
:1021E0009305050013050C00EF00982793050900DF
:1021F000EF00D827EF104838B7A7094013070500AC
:1022000013060B009385879A93860B001385049918
:10221000EF2098659385090013050400EF0058240A
:1022200093050000130C0500EF004866130B000235
:102230006356050033CC8A01130BD00213050C0042
:10224000EF108833930B0500EF10881D93050500F0
:1022500013050C00EF00D82093050900EF001821AA
:10226000EF108831B7A709401307050013060B00CC
:102270009385C79A93860B0013850499EF20D85E47
:102280009385090013050400EF00983F93050000B3
:1022900013040500EF00885F130B0002635605006E
:1022A00033C48A00130BD00213050400EF10C82CAE
:1022B000930B0500EF10C8169305050013050400E5
:1022C000EF00181A93050900EF00581AEF10C82AFA
:1022D000B7A70940130705009385079B93860B005A
:1022E00013060B0013850499EF201858B7A709406F
:1022F000138587C9EF205857130A1A009307A000C7
:10230000630CFA0213050A00EF10881193850D0083
:10231000EF00C86F9305000013040500EF00085795
:1023200033CB8A00930BD002E34E05DA130B040083
:10233000930B00026FF01FDB8320C1030324810392
:1023400083244103032901038329C102032A810253
:10235000832A4102032B0102832BC101032C81013B
:10236000832C4101032D0101832DC10013010104C0
:102370006780000037750A401305057F6FE0DF9125
:1023800037A50940130585C36F205853130101FD7C
:1023900037A50940232E3101232C41012326710149
:1023A0001305C5C4B7490000370A7700B7CB34FF1F
:1023B000232A510123286101232481012322910131
:1023C00023261102232481022322910223202103A8
:1023D000930C0000EF20984E930A0000130B0000AE
:1023E00093897956130A7A07938BBB9C37AC0940C3
:1023F00037C40000130484A9B384890013090B00B7
:102400008B87890093060400138704009305090055
:10241000138609001305CCC6330444016380F40815
:10242000EF209844938C1C0013091900B3844401D5
:10243000E31874FDB727210093875734B389F90057
:10244000B74704F8938737DD130B5B22E392F9FA61
:10245000032481028320C102832441020329010253
:102460008329C101032A8101032B0101832BC100B0
:10247000032C810093860C0013860A00832C4100F4
:10248000832A4101B715100037A509409385C5CEB1
:102490001305C5C9130101036F20183D938A1A0063
:1024A00013091900B3844401E31C74F5B727210014
:1024B00093875734B389F900B74704F8938737DD1A
:1024C000130B5B22E396F9F26FF09FF837850A4011
:1024D000130585836FE04FFC678000006780000074
:1024E000631405003306D60013050600678000005C
:1024F00013051500131525006780000093070500DC
:10250000630AB50463040504638205040326050019
:1025100003A7050013050000631CC702635CC0022B
:102520001385470093854500930700006F00C000A6
:10253000938545006300F6028326050003A7050086
:102540009387170013054500E384E6FE130500009A
:1025500067800000130510006780000093072001CA
:1025600063EEA700B7A70940938707DA1315250084
:102570003385A700032505006780000037A50940C3
:102580001305C5CE6780000003230500130101FC7D
:102590002324C1022326D1022328E102232AF102A7
:1025A000232C0103232E11038327830013068102AA
:1025B000232E11002326C100E78007008320C101DC
:1025C000130101046780000083250500130101FC4D
:1025D0002326D1022328E102232AF102232C01031E
:1025E000232E110383A78500930506001306C1025D
:1025F000232E11002326C100E78007008320C1019C
:1026000013010104678000009376F50F1307100192
:10261000636ED712B7A70940938707E1131525000A
:102620003305F50083270500678007009307100135
:1026300023A0F50013050000678000009307200128
:1026400023A0F50013050000678000009307100029
:1026500023A0F50013050000678000009307A00089
:1026600023A0F500130500006780000093072000F9
:1026700023A0F500130500006780000093073000D9
:1026800023A0F500130500006780000093074000B9
:1026900023A0F50013050000678000009307500099
:1026A00023A0F50013050000678000009307600079
:1026B00023A0F50013050000678000009307700059
:1026C00023A0F50013050000678000009307800039
:1026D00023A0F50013050000678000009307900019
:1026E00023A0F50013050000678000009307B000E9
:1026F00023A0F50013050000678000009307C000C9
:1027000023A0F50013050000678000009307D000A8
:1027100023A0F50013050000678000009307E00088
:1027200023A0F50013050000678000009307F00068
:1027300023A0F50013050000678000009307000147
:1027400023A0F5001305000067800000130101FFBE
:10275000232611009307060023A00500B7A5094012
:10276000130605009385C5DE13850700EFF0DFE152
:102770008320C100130510001301010167800000D0
:10278000130500006780000003270600130101FF06
:1027900093070600032707002324810023229100CA
:1027A00013040500130640001385070023261100BB
:1027B0009305800093840600E70007008327040048
:1027C0001306A00023200500B307F44003D7070039
:1027D00023020500637EE60883D6A700638A060805
:1027E000B306D40003C606009306B0006312D608F1
:1027F0009306C00063FEE60683D7C7003304F400E7
:10280000638807068327040013064000130710009F
:102810003304F40083270400B307F44083D6070091
:102820006376D60403D7470093050000630E0700C4
:102830003307E400030807001307F8FF1377F70FC7
:102840006364E600930508002320B50013076000C9
:10285000637ED70283D767001307100063880700E1
:102860003304F400034704003337E0002302E5009B
:102870008320C1000324810023A0A40083244100FD
:102880001305000013010101678000001307100009
:102890002302E5006FF0DFFD1305000067800000F4
:1028A00083270600130101FE232A910083A7070056
:1028B00093040600232C8100232821011304050022
:1028C0002326310123244101232E1100138A050000
:1028D0001306400093054000138504009389060009
:1028E000E7800700832704009306A000232005004B
:1028F000B307F44003D707001309050063F6E600A9
:1029000083D6A7006398060223A0290113040000C0
:102910008320C101130504000324810183244101A4
:10292000032901018329C100032A81001301010247
:1029300067800000B306D40003C606009306800239
:10294000E314D6FC9306C000E3F0E6FC83D7C7008F
:102950003304F400E38A07FA8327040013074000D6
:10296000130500003304F40083270400B307F44088
:1029700083D60700637AD70083D7470063860700B2
:102980003304F4000305040013060A00930509004C
:10299000EFF09FC713040500E30805F683A70400C2
:1029A000930509001385040083A74700E78007000B
:1029B0006FF01FF683270600130101FE232A910002
:1029C00083A7070093040600232C810023282101FC
:1029D000130405002326310123244101232E110075
:1029E000138A050013064000930540001385040078
:1029F00093890600E7800700832704009306A00060
:102A000023200500B307F44003D70700130905008E
:102A100063F6E60083D6A7006398060223A0290187
:102A2000130400008320C101130504000324810165
:102A300083244101032901018329C100032A810064
:102A40001301010267800000B306D40003C606002C
:102A500093069003E314D6FC9306C000E3F0E6FC73
:102A600083D7C7003304F400E38A07FA83270400FE
:102A700013074000130500003304F400832704000B
:102A8000B307F44083D60700637AD70083D74700A3
:102A9000638607003304F4000305040013060A00EC
:102AA00093050900EFF05FB613040500E30805F68F
:102AB00083A70400930509001385040083A747003A
:102AC000E78007006FF01FF6130500006780000025
:102AD00013050000678000001305000067800000F8
:102AE000130500006780000003270600130101FFA3
:102AF0009307060003270700232481002322910067
:102B00001304050023261100138507001306400057
:102B10009305400093840600E70007008327040024
:102B20009306A00023200500B307F44003D7070055
:102B300063F2E60683D6A700638E0604B306D400CC
:102B400003C60600930670066316D6049306C000FB
:102B500063F2E60483D7C7003304F400638C0702F2
:102B60008327040093064000130700003304F40099
:102B700083270400B307F44003D6070063FAC600B6
:102B800083D74700638607003304F400032704005B
:102B90002320E5008320C1000324810023A0A4009A
:102BA0008324410013050000130101016780000028
:102BB00083270600130101FE2322510183A707008A
:102BC000930A0600232C8100232A91001304050098
:102BD0002326310123244101232E11002328210122
:102BE00093890500130640009305800013850A00B1
:102BF000138A0600E7800700832704009306A000DD
:102C000023200500B307F44003D707002322050063
:102C10009304050063F6E60083D6A700639A0602D4
:102C200023209A00130900008320C101032481019D
:102C3000832441018329C100032A8100832A4100A2
:102C40001305090003290101130101026780000037
:102C5000B306D40003C6060093065002E312D6FC66
:102C60009306C000E3FEE6FA83D7C7003304F400FE
:102C7000E38807FA832704001307400013050000C8
:102C80003304F40083270400B307F44083D607001D
:102C9000637AD70083D7470063860700B307F40041
:102CA000038507001386090093850400EFF0DF9584
:102CB000130905006310050483270400130760004F
:102CC00013050000B307F44083D60700637AD700EA
:102CD00083D76700638607003304F400030504000C
:102CE0001386090093854400EFF01F921309050035
:102CF000E30805F283A70A009385040013850A0000
:102D000083A74700E78007006FF01FF2130500005C
:102D10006780000003270600130101FF93070600E8
:102D200003270700232481002322910013040500B8
:102D30001306400013850700232611009305800029
:102D400093840600E7000700832704001307A00010
:102D500023200500B307F44003D607002322050013
:102D60006374C70883D6A70063800608B306D4003F
:102D700083C60600639AE6061307C0006376C7069B
:102D800083D7C7003304F400638007068327040059
:102D9000930660003304F40083270400B307F44073
:102DA00003D7070063F0E60603D767009306000029
:102DB000630007023307E4000306070093054000A1
:102DC0001307F6FF1377F70F63E4E5009306060099
:102DD0002322D50083D74700638A07023304F40017
:102DE000832704002320F5008320C10003248100F1
:102DF00023A0A40083244100130500001301010156
:102E00006780000093064000E3E6E6FC93070000BD
:102E10002320F5006FF05FFD03270600130101FF7B
:102E20009307060003270700232481002322910033
:102E30001304050013064000138507002326110024
:102E40009305800193840600E700070083270400B0
:102E50001306A00023200500B307F44003D70700A2
:102E6000232205002324050023260500232805002E
:102E7000232A05006370E61203D6A700630C061030
:102E80003306C40083450600930610006394D510F2
:102E90009306C00063F0E61003D7C700B307E40051
:102EA000630A070E03A7070013064000B387E70075
:102EB00003A707003387E74083560700637AD60EDF
:102EC0008355470013081000638E0500B385B700D3
:102ED00003860500630806001306F6FF1336160086
:102EE0001318160023200501130660006374D60C26
:102EF0000356670093050000630606003386C7008B
:102F0000832506002322B500130680006374D60AC9
:102F10000356870093050000630606003386C7004A
:102F2000832506002324B5001306A0006374D60889
:102F30000356A700630006083386C7000306060091
:102F4000130840009305F6FF93F5F50F6364B80688
:102F50002326C5001306C0006376D6060356C700B5
:102F600093051000630606003386C700832506001C
:102F70002328B5001306E0006370D6068356E700E9
:102F80001307100063860600B387D70003A7070066
:102F9000232AE5008320C1000324810023A0A4008C
:102FA0008324410013050000130101016780000024
:102FB0002320B500130600002326C5001306C00019
:102FC000E36ED6F893071000130710002328F500CE
:102FD000232AE5006FF01FFC13071000232AE500E9
:102FE0006FF05FFB03270600130101FF9307060044
:102FF00003270700232481002322910013040500E6
:1030000013061000138507002326110093052000E6
:1030100093840600E7000700832704001306A0003E
:1030200023000500B307F44003D70700A300050001
:103030006374E60883D6A70063800608B306D4004D
:1030400003C60600930660066318D6069306C00002
:1030500063F4E60683D7C7003304F400638E0704E5
:1030600083270400930640003304F4008327040000
:10307000B307F44003D7070063FEE60403D6470016
:1030800093060000630806003306C400834606006A
:10309000B336D0002300D5009306600063FCE6023F
:1030A00083D76700638807023304F4008347040072
:1030B000B337F000A300F5008320C1000324810092
:1030C00023A0A40083244100130500001301010183
:1030D0006780000093070000A300F5006FF0DFFD9C
:1030E000130500006780000003270600130101FF9D
:1030F0009307060003270700232481002322910061
:103100001304050023261100138507001306400051
:103110009305400093840600E7000700832704001E
:103120009306A00023200500B307F44003D707004F
:1031300063F2E60683D6A700638E0604B306D400C6
:1031400003C606009306E0056316D6049306C00086
:1031500063F2E60483D7C7003304F400638C0702EC
:103160008327040093064000130700003304F40093
:1031700083270400B307F44003D6070063FAC600B0
:1031800083D74700638607003304F4000327040055
:103190002320E5008320C1000324810023A0A40094
:1031A0008324410013050000130101016780000022
:1031B00003270600130101FF9307060003270700FA
:1031C00023248100232291001304050013064000EC
:1031D00013850700232611009305C0019384060080
:1031E000E7000700832704001306A0002320050042
:1031F000B307F44003D7070023220500232405006A
:103200002326050023280500232A0500232C05007A
:103210006370E61403D6A700630C06123306C400DD
:1032200003460600930620006314D6129306C000DE
:1032300063F0E61203D7C700B307E400630A071080
:1032400003A7070013064000B387E70003A70700A2
:103250003387E74083560700637AD61083554700CB
:1032600013081000638E0500B385B70003860500C0
:10327000630806001306F6FF13361600131816002F
:1032800023200501130660006376D60E03566700FF
:1032900093050000630606003386C70083250600F9
:1032A0002322B500130680006376D60C03568700F0
:1032B00093050000630606003386C70083250600D9
:1032C0002324B5001306A0006376D60A0356A70090
:1032D00093050000630606003386C70083250600B9
:1032E0002326B5001306C0006376D6080356C70030
:1032F000630206083386C700030606001308400071
:103300009305F6FF93F5F50F6366B8062328C5000D
:103310001306E0006378D6060356E7009305100015
:10332000630606003386C70083250600232AB500FE
:10333000130600016372D6068356070113071000B7
:1033400063860600B387D70003A70700232CE50098
:103350008320C1000324810023A0A4008324410012
:10336000130500001301010167800000130610001F
:103370002320C500130600002328C5001306E00023
:10338000E36CD6F89307100013071000232AF5000A
:10339000232CE5006FF0DFFB13071000232CE50062
:1033A0006FF01FFB13050000678000000327060075
:1033B000130101FF93070600032707002324810060
:1033C0002322910013040500232611001385070012
:1033D000130640009305400093840600E7000700B1
:1033E000832704009306A00023200500B307F440C0
:1033F00003D7070063FAE60683D6A70063860606AE
:10340000B306D40003C606009306D001631ED6049B
:103410009306C00063FAE60483D7C7003304F400C0
:103420006384070483270400930640001307000009
:103430003304F40083270400B307F44003D60700E5
:1034400063F2C60283D74700638E07003304F4009B
:10345000030604009307F6FF93F7F70F63E4F60003
:10346000130706002320E5008320C1000324810008
:1034700023A0A400832441001305000013010101CF
:10348000678000001305000067800000130500003E
:10349000678000001305000067800000130500002E
:1034A000678000001305000067800000130500001E
:1034B000678000001305000067800000130500000E
:1034C0006780000083270600130101FE23263101D7
:1034D00083A7070093090600232C8100232A91006B
:1034E000130405002328210123244101232E110068
:1034F000138A0500130640009305C00013850900D8
:1035000013890600E7800700832704009306A000C4
:1035100023200500B307F44003D70700232205004A
:10352000231405009304050063F6E60083D6A70084
:10353000639606028320C1010324810123209900A0
:103540008329C1008324410103290101032A810049
:10355000130500001301010267800000B306D400C8
:1035600003C6060093068000E316D6FC9306C0004F
:10357000E3F2E6FC83D7C7003304F400E38C07FAD8
:1035800003250400930640003304A40083270400AD
:10359000B307F44003D7070063F0E60E03D64700F5
:1035A00093050000630E06003306C4000305060001
:1035B0001306F5FF1376F60F63E4C60093050500C6
:1035C00023A0B4009306800063F8E60A03D68700C0
:1035D00093060000630806003306C4008346060015
:1035E000B336D0002384D4009306A00063F0E60233
:1035F00083D6A7001307000063880600B306D40033
:1036000003C706003337E000A384E40083D76700D4
:10361000E38207F23304F40083070400E38C07F02D
:10362000130710006396E70023A2F4006FF09FF0E9
:10363000B7A50940938585E513050A00EFE0DFF49F
:1036400083A70900138509009385040083A7470019
:10365000E78007008320C101032481018324410105
:10366000032901018329C100032A810013051000E9
:10367000130101026780000093066000E3FCE6EAA4
:103680006FF0DFF803270600130101FF9307060020
:10369000032707002324810023229100130405003F
:1036A00023261100138507001306400093058000B0
:1036B00093840600E7000700832704009306A00018
:1036C00023200500B307F44003D707002322050099
:1036D00063F0E60883D6A700638C0606B306D40021
:1036E00003C60600930670016314D6069306C00055
:1036F00063F0E60683D7C7003304F400638A070447
:1037000083270400930640003304F4008327040059
:10371000B307F44003D7070063FAE60483D64700F3
:103720001306000063860600B306D40003A6060055
:103730002320C5009306600063FAE60283D7670082
:10374000638607023304F400832704002322F50074
:103750008320C1000324810023A0A400832441000E
:1037600013050000130101016780000093070000AA
:103770002322F5006FF0DFFD1305000067800000D5
:10378000130500006780000013050000678000003B
:10379000130500006780000003270600130101FFE6
:1037A00093070600032707002324810023229100AA
:1037B000130405002326110013850700130640009B
:1037C0009305800093840600E70007008327040028
:1037D0009306A00023200500B307F44003D7070099
:1037E0002322050063F0E60883D6A700638C060653
:1037F000B306D40003C606009306C0056314D606BC
:103800009306C00063F0E60683D7C7003304F400D4
:10381000638A070483270400930640003304F400FE
:1038200083270400B307F44003D7070063FAE604D4
:1038300083D647001306000063860600B306D40053
:1038400003A606002320C5009306600063FAE60283
:1038500083D76700638607023304F40083270400DC
:103860002322F5008320C1000324810023A0A400AB
:10387000832441001305000013010101678000004B
:10388000930700002322F5006FF0DFFD03270600F9
:10389000130101FF9307060003270700232481007B
:1038A000232291001304050023261100138507002D
:1038B000130640009305400093840600E7000700CC
:1038C000832704009306A00023200500B307F440DB
:1038D00003D7070063F8E60683D6A70063840606CD
:1038E000B306D40083C606001306C000639CC6045A
:1038F00063FAE60483D7C7003304F4006384070443
:103900008327040093064000130700003304F400EB
:1039100083270400B307F44003D6070063F2C6020E
:1039200083D74700638E07003304F40003060400C6
:103930009307F6FF93F7F70F63E4F600130706000B
:103940002320E5008320C1000324810023A0A400DC
:10395000832441001305000013010101678000006A
:1039600003270600130101FF930706000327070042
:103970002324810023229100130405002326110033
:10398000138507001306400093054000938406004A
:10399000E700070083270400130700002320E50049
:1039A000B307F44003D707009306A00063F2E606CE
:1039B00083D6A700638E0604B306D40003C60600B0
:1039C0009306B0046316D6049306C00063F2E604BF
:1039D00083D7C7003304F400638C070283270400F5
:1039E00093064000130700003304F400832704000B
:1039F000B307F44003D6070063FAC60083D7470035
:103A0000638607003304F400032704002320E50045
:103A10008320C1000324810023A0A400832441004B
:103A20001305000013010101678000001305000069
:103A30006780000013050000678000001305000088
:103A40006780000013050000678000001305000078
:103A50006780000013050000678000001305000068
:103A60006780000013050000678000001305000058
:103A70006780000013050000678000000327060030
:103A8000130101FF93070600032707002324810089
:103A9000232291001304050023261100138507003B
:103AA000130640009305400093840600E7000700DA
:103AB000832704009306A00023200500B307F440E9
:103AC00003D7070063FAE60683D6A70063860606D7
:103AD000B306D40003C606009306D004631ED604C2
:103AE0009306C00063FAE60483D7C7003304F400EA
:103AF0006384070483270400930640001307100023
:103B00003304F40083270400B307F44003D607000E
:103B100063F2C60283D74700638E07003304F400C4
:103B200083070400638807001387F7FF1337170024
:103B3000131717002320E5008320C1000324810010
:103B400023A0A400832441001305000013010101F8
:103B50006780000003270600130101FF930706009A
:103B6000032707002324810023229100130405006A
:103B7000232611001385070013064000930540001B
:103B800093840600E7000700832704009306A00043
:103B900023200500B307F44003D7070063FAE606C5
:103BA00083D6A70063860606B306D40003C60600C4
:103BB00093065001631ED6049306C00063FAE60420
:103BC00083D7C7003304F400638407048327040009
:103BD00093064000130700003304F4008327040019
:103BE000B307F44003D6070063F2C60283D7470049
:103BF000638E07003304F400030604009307F6FF06
:103C000093F7F70F63E4F600130706002320E5009F
:103C10008320C1000324810023A0A4008324410049
:103C20001305000013010101678000001305000067
:103C3000678000001305000067800000032706006E
:103C4000130101FF930706000327070023248100C7
:103C50002322910013040500232611001385070079
:103C6000130640009305800093840600E7000700D8
:103C7000832704009306A00023200500B307F44027
:103C800003D707002322050063F0E60883D6A700C8
:103C9000638C0606B306D40003C606009306B00381
:103CA0006314D6069306C00063F0E60683D7C70008
:103CB0003304F400638A070483270400930640005A
:103CC0003304F40083270400B307F44003D707004C
:103CD00063FAE60483D647001306000063860600F5
:103CE000B306D40003A606002320C5009306600097
:103CF00063FAE60283D76700638607023304F400A1
:103D0000832704002322F5008320C10003248100BF
:103D100023A0A40083244100130500001301010126
:103D200067800000930700002322F5006FF0DFFD9D
:103D30001305000067800000130500006780000085
:103D400003270600130101FF93070600032707005E
:103D50002324810023229100130405001306400050
:103D60001385070023261100930580029384060023
:103D7000E7000700832704001306A00023200500A6
:103D8000B307F44003D707002322050023240500CE
:103D90002326050023280500232A0500232C0500DF
:103DA000232E050023200502232205026370E6125C
:103DB00003D6A700630C06103306C40003460600B2
:103DC000930650006314D6109306C00063F0E6100B
:103DD00083D7C7003304F400638A070E83270400E7
:103DE000130740003304F40083270400B307F440B2
:103DF00083D60700637AD70E03D747001306100057
:103E0000630E07003307E400030707006308070099
:103E10001307F7FF13371700131617002320C500E9
:103E2000130760006376D70C03D767001306000002
:103E3000630607003307E400032607002322C500BA
:103E4000130780006376D70A03D7870013060000A4
:103E5000630607003307E400032607002324C50098
:103E60001307A0006376D70803D7A7001306000046
:103E7000630607003307E400032607002326C50076
:103E80001307C0006376D70603D7C70013060000E8
:103E9000630607003307E400032607002328C50054
:103EA0001307E0006376D70483D7E7006382070433
:103EB0003304F40083070400930640001387F7FFE0
:103EC0001377F70F63E6E602232AF5008320C1008B
:103ED0000324810023A0A4008324410013050000D3
:103EE0001301010167800000930710002320F500F3
:103EF00093070000232AF5006FF05FFD1305000013
:103F000067800000130500006780000013050000B3
:103F10006780000003270600130101FF93070600D6
:103F200003270700232481002322910013040500A6
:103F300023261100138507001306100093051000B7
:103F400093840600E7000700832704009306A0007F
:103F500023000500B307F44003D7070063F4E60627
:103F600083D6A70063800606B306D40003C6060006
:103F70009306B0016318D6049306C00063F4E60408
:103F800083D7C7003304F400638E0702832704003D
:103F900093064000130700003304F4008327040055
:103FA000B307F44003D6070063FCC60083D747007D
:103FB000638807003304F400034704003337E0004C
:103FC0002300E5008320C1000324810023A0A40076
:103FD00083244100130500001301010167800000E4
:103FE00013050000678000001305000067800000D3
:103FF00083270600130101FE2326310183A7070052
:1040000093090600232C8100232A910023282101F3
:104010009304050023244101232E1100138A050077
:10402000130640009305400213850900138906001A
:10403000E780070083A704009306A0002320050063
:10404000B387F44003D7070023220500232405008B
:104050002326050023280500232A0500232C05001C
:10406000232E0500232005021304050063F6E60055
:1040700083D6A70063960602232089008320C1010E
:104080000324810183244101032901018329C10003
:10409000032A81001305000013010102678000005C
:1040A000B386D40003C6060093061001E316D6FCBF
:1040B0009306C000E3F2E6FC83D7C700B384F400A4
:1040C000E38C07FA83A7040013074000B384F400CD
:1040D00083A70400B387F44083D60700E37ED7F8B4
:1040E00083D74700E38A07F8B384F40083A704006A
:1040F00013078000B384F40083A704006364F70807
:10410000638E070683A64400130710002320D50002
:104110006386E70683A68400130720002322D500C8
:10412000638EE70483A6C400130730002324D50060
:104130006386E70483A60401130740002326D50005
:10414000638EE70283A64401130750002328D5009D
:104150006386E70283A6840113076000232AD50043
:10416000638EE70083A6C40113077000232CD500DB
:104170006386E70003A70402232EE5002320F40250
:104180006FF09FEF37A60940B7A50940130646E830
:104190009385C5E813050A00EFE00FBF83A7090068
:1041A000138509009305040083A74700E7800700F3
:1041B0008320C101032481018324410103290101DA
:1041C0008329C100032A8100130510001301010295
:1041D0006780000003270600130101FF9307060014
:1041E00003270700232481002322910013040500E4
:1041F00013061000138507002326110093052000E5
:1042000093840600E7000700832704001306A0003C
:1042100023000500B307F44003D70700A3000500FF
:104220006374E60883D6A70063800608B306D4004B
:1042300003C606009306F0006318D6069306C00076
:1042400063F4E60683D7C7003304F400638E0704E3
:1042500083270400930680003304F40083270400BE
:10426000B307F44003D7070063FEE60403D68700D4
:1042700093060000630806003306C4008346060068
:10428000B336D0002300D5009306A00063FCE602FD
:1042900083D7A700638807023304F4008347040030
:1042A000B337F000A300F5008320C1000324810090
:1042B00023A0A40083244100130500001301010181
:1042C0006780000093070000A300F5006FF0DFFD9A
:1042D00003270600130101FF9307060003270700C9
:1042E00023248100232291001304050013061000EB
:1042F00013850700232611009305200093840600F0
:10430000E7000700832704001306A0002300050030
:10431000B307F44003D70700A30005006374E60861
:1043200083D6A70063800608B306D40003C6060040
:104330009306A0046318D6069306C00063F4E6064D
:1043400083D7C7003304F400638E07048327040077
:10435000930640003304F40083270400B307F440BD
:1043600003D7070063FEE60403D647009306000068
:10437000630806003306C40083460600B336D00047
:104380002300D5009306600063FCE60283D7670034
:10439000638807023304F40083470400B337F00056
:1043A000A300F5008320C1000324810023A0A40002
:1043B0008324410013050000130101016780000000
:1043C00093070000A300F5006FF0DFFD1305000068
:1043D00067800000130500006780000013050000DF
:1043E0006780000083270600130101FE232A910045
:1043F00083A7070093040600232C810023282101B2
:10440000130405002326310123244101232E11002A
:10441000138A05001306400093054000138504002D
:1044200093890600E7800700832704009306A00015
:1044300023200500B307F44003D707001309050044
:1044400063F6E60083D6A7006398060223A029013D
:10445000130400008320C10113050400032481011B
:1044600083244101032901018329C100032A81001A
:104470001301010267800000B306D40003C60600E2
:1044800093067003E314D6FC9306C000E3F0E6FC49
:1044900083D7C7003304F400E38A07FA83270400B4
:1044A00013074000130500003304F40083270400C1
:1044B000B307F44083D60700637AD70083D7470059
:1044C000638607003304F4000305040013060A00A2
:1044D00093050900EFE04F9313040500E30805F688
:1044E00083A70400930509001385040083A74700F0
:1044F000E78007006FF01FF61305000067800000DB
:10450000130500006780000003270600130101FF68
:10451000930706000327070023248100232291002C
:10452000130405002326110013850700130640001D
:104530009305400093840600E700070083270400EA
:10454000130700002320E500B307F44003D707005A
:104550009306A00063F2E60683D6A700638E0604E6
:10456000B306D40003C60600930690006316D60473
:104570009306C00063F2E60483D7C7003304F40057
:10458000638C070283270400930640001307000092
:104590003304F40083270400B307F44003D6070074
:1045A00063FAC60083D74700638607003304F4002C
:1045B000032704002320E5008320C1000324810099
:1045C00023A0A4008324410013050000130101016E
:1045D00067800000130500006780000003270600C5
:1045E000130101FF9307060003270700232481001E
:1045F00023229100130405002326110013850700D0
:10460000130640009305400093840600E70007006E
:10461000832704009306A00023200500B307F4407D
:1046200003D7070063F2E60683D6A700638E06046D
:10463000B306D40003C60600930630016316D60401
:104640009306C00063F2E60483D7C7003304F40086
:10465000638C0702832704009306400013070000C1
:104660003304F40083270400B307F44003D60700A3
:1046700063FAC60083D74700638607003304F4005B
:10468000032704002320E5008320C10003248100C8
:1046900023A0A4008324410013050000130101019D
:1046A0006780000003270600130101FF930706003F
:1046B000032707002324810023229100130405000F
:1046C00023261100138507001306400093054000C0
:1046D00093840600E7000700832704009306A000E8
:1046E00023200500B307F44003D7070063F2E60672
:1046F00083D6A700638E0604B306D40003C6060063
:10470000930630026316D6049306C00063F2E604F3
:1047100083D7C7003304F400638C070283270400A7
:1047200093064000130700003304F40083270400BD
:10473000B307F44003D6070063FAC60083D74700E7
:10474000638607003304F400032704002320E500F8
:104750008320C1000324810023A0A40083244100FE
:104760001305000013010101678000000327060004
:10477000130101FF9307060003270700232481008C
:10478000232291001304050023261100138507003E
:10479000130640009305400093840600E7000700DD
:1047A000832704009306A00023200500B307F440EC
:1047B00003D7070063F2E60683D6A700638E0604DC
:1047C000B306D40003C606009306F0046316D604AD
:1047D0009306C00063F2E60483D7C7003304F400F5
:1047E000638C070283270400930640001307000030
:1047F0003304F40083270400B307F44003D6070012
:1048000063FAC60083D74700638607003304F400C9
:10481000032704002320E5008320C1000324810036
:1048200023A0A4008324410013050000130101010B
:104830006780000003270600130101FF93070600AD
:10484000032707002324810023229100130405007D
:10485000130640001385070023261100930500016D
:1048600093840600E70007008327040093060000F6
:1048700023200500B307F44003D707001306A00068
:104880002322D5002324D50023160500637CE60EE1
:1048900083D6A7006388060EB306D40003C60600BD
:1048A000930670046310D60E9306C00063FCE60CFA
:1048B00083D7C7003304F4006386070C8327040002
:1048C000930640003304F40083270400B307F44048
:1048D00003D7070063F6E60C03D6470093050000F4
:1048E000630E06003306C400030806001306F8FF33
:1048F0001376F60F63E4C600930508002320B50085
:104900009306600063FEE60883D667001306000086
:1049100063860600B306D40003A606002322C50062
:104920009306800063FEE60683D687001306000028
:1049300063860600B306D40003A606002324C50040
:104940009306A00063FEE60403D6A70093060000CA
:10495000630806003306C40083460600B336D00061
:104960002306D5009306C00063FCE60283D7C70088
:10497000638807023304F40083470400B337F00070
:10498000A306F5008320C1000324810023A0A40016
:10499000832441001305000013010101678000001A
:1049A00093070000A306F5006FF0DFFD83270600E4
:1049B000130101FE2326310183A707009309060096
:1049C000232C8100232A9100232821019304050030
:1049D00023244101232E1100138A050013064000F1
:1049E000930540021385090013890600E78007003C
:1049F00083A704009306A00023200500B387F4409A
:104A000003D70700232205002324050023260500E1
:104A100023280500232A0500232C0500232E05004A
:104A2000232005021304050063F6E60083D6A700E1
:104A300063960602232089008320C101032481019B
:104A400083244101032901018329C100032A810034
:104A5000130500001301010267800000B386D40033
:104A600003C606009306E001E316D6FC9306C000D9
:104A7000E3F2E6FC83D7C700B384F400E38C07FAC3
:104A800083A7040013074000B384F40083A7040045
:104A9000B387F44083D60700E37ED7F883D7470077
:104AA000E38A07F8B384F40083A7040013078000A7
:104AB000B384F40083A704006364F708638E0706D9
:104AC00083A64400130710002320D5006386E70661
:104AD00083A68400130720002322D500638EE704F9
:104AE00083A6C400130730002324D5006386E7049F
:104AF00083A60401130740002326D500638EE70236
:104B000083A64401130750002328D5006386E702DB
:104B100083A6840113076000232AD500638EE70073
:104B200083A6C40113077000232CD5006386E70019
:104B300003A70402232EE5002320F4026FF09FEF69
:104B400037A60940B7A50940130606ED9385C5E8C9
:104B500013050A00EFD05FA383A70900138509009E
:104B60009305040083A74700E78007008320C10165
:104B70000324810183244101032901018329C10008
:104B8000032A810013051000130101026780000051
:104B90001305000067800000130500006780000017
:104BA000130500006780000003270600130101FFC2
:104BB0009307060003270700232481002322910086
:104BC0001304050013064000138507002326110077
:104BD0009305400193840600E70007008327040043
:104BE0001306A00023200500B307F44003D70700F5
:104BF0002322050023240500232605002328050081
:104C00006370E60E83D6A700638C060CB306D4004F
:104C100003C60600930600026314D60C9306C00078
:104C200063F0E60C83D7C7003304F400638A070AF5
:104C300083270400930640003304F4008327040014
:104C4000B307F44003D7070063FAE60A83D64700A8
:104C50001306000063860600B306D40003A6060010
:104C60002320C5009306600063FAE60883D6670038
:104C70001306000063860600B306D40003A60600F0
:104C80002322C5009306800063FAE60683D68700D8
:104C90001306000063860600B306D40003A60600D0
:104CA0002324C5009306A00063FAE60483D6A70078
:104CB0001306000063860600B306D40003A60600B0
:104CC0002326C5009306C00063FAE60283D7C70017
:104CD000638607023304F400832704002328F500C9
:104CE0008320C1000324810023A0A4008324410069
:104CF0001305000013010101678000009307000005
:104D00002328F5006FF0DFFD03270600130101FFE4
:104D10009307060003270700232481002322910024
:104D20001304050013064000138507002326110015
:104D30009305800093840600E700070083270400A2
:104D40001306A00023200500B307F44003D7070093
:104D500023020500637EE60883D6A700638A06085F
:104D6000B306D40003C606009306C0016312D6083A
:104D70009306C00063FEE60683D7C7003304F40041
:104D800063880706832704001306400013071000FA
:104D90003304F40083270400B307F44083D60700EC
:104DA0006376D60403D7470093050000630E07001F
:104DB0003307E400030807001307F8FF1377F70F22
:104DC0006364E600930508002320B5001307600024
:104DD000637ED70283D7670013071000638807003C
:104DE0003304F400034704003337E0002302E500F6
:104DF0008320C1000324810023A0A4008324410058
:104E00001305000013010101678000001307100063
:104E10002302E5006FF0DFFD03270600130101FF09
:104E20009307060003270700232481002322910013
:104E30001304050013064000138507002326110004
:104E40009305C00093840600E70007008327040051
:104E50001306A00023200500B307F44003D7070082
:104E60002322050023040500637CE60A83D6A700FD
:104E70006388060AB306D40003C6060093066000E2
:104E80006310D60A9306C00063FCE60883D7C70008
:104E90003304F40063860708832704009306400068
:104EA0003304F40083270400B307F44003D707005A
:104EB00063F6E60883D64700130600006386060003
:104EC000B306D40003A606002320C50093066000A5
:104ED00063FCE60683D667001306000063800602C3
:104EE000B306D40083850600130840009386F5FFBF
:104EF00093F6F60F6364D800138605002322C500DD
:104F00009306800063FCE60283D78700638807026C
:104F10003304F40083470400B337F0002304F500A2
:104F20008320C1000324810023A0A4008324410026
:104F300013050000130101016780000093070000C2
:104F40002304F5006FF0DFFD130600006FF01FFB78
:104F50001305000067800000130500006780000053
:104F600003270600130101FF93070600032707002C
:104F7000232481002322910013040500130640001E
:104F800013850700232611009305C00093840600B3
:104F9000E7000700832704001306A0002320050074
:104FA000B307F44003D7070023220500232405009C
:104FB0006378E60A83D6A7006384060AB306D400A2
:104FC00003C6060093061003631CD6089306C000B0
:104FD00063F8E60883D7C7003304F4006382070848
:104FE00083270400930640003304F4008327040061
:104FF000B307F44003D7070063F2E60803D647007F
:1050000093051000630E06003306C40083060600F5
:10501000638806009386F6FF93B6160093951600F4
:105020002320B5009306600063FEE60483D6670084
:105030001306000063860600B306D40003A606002C
:105040002322C5009306800063FEE60283D7870013
:10505000638A07023304F400832704002324F50045
:105060008320C1000324810023A0A40083244100E5
:105070001305000013010101678000009307100071
:105080002320F500930700002324F5006FF05FFD57
:1050900003270600130101FF9307060003270700FB
:1050A00023248100232291001304050023261100EC
:1050B00013850700130640009305800093840600C3
:1050C000E7000700832704009306A00023200500C3
:1050D000B307F44003D707002322050063F0E60876
:1050E00083D6A700638C0606B306D40003C6060069
:1050F000930600046314D6069306C00063F0E60628
:1051000083D7C7003304F400638A070483270400AD
:10511000930640003304F40083270400B307F440EF
:1051200003D7070063FAE60483D64700130600009E
:1051300063860600B306D40003A606002320C5003C
:105140009306600063FAE60283D76700638607026E
:105150003304F400832704002322F5008320C100D8
:105160000324810023A0A400832441001305000030
:105170001301010167800000930700002322F5005E
:105180006FF0DFFD03270600130101FF9307060000
:105190000327070023248100232291001304050024
:1051A0001306400013850700232611009305800095
:1051B00093840600E7000700832704001306A0007D
:1051C00023200500B307F44003D70700232205007E
:1051D0006376E60883D6A70063820608B306D40088
:1051E00003C606009306F006631AD6069306C000AF
:1051F00063F6E60683D7C7003304F400638007062E
:1052000083270400130740003304F40083270400BD
:10521000B307F44083D607006372D70403D747006F
:10522000630C07003307E400032607003307C700B9
:10523000130747002320E500130760006370D702BF
:1052400083D76700638C07003304F40083270400CE
:105250003304F40013044400232285008320C1009A
:105260000324810023A0A40083244100130500002F
:10527000130101016780000003270600130101FFED
:1052800093070600032707002324810023229100AF
:1052900013040500232611001385070013064000A0
:1052A0009305800093840600E7000700832704002D
:1052B0009306A00023200500B307F44003D707009E
:1052C0002322050063F0E60883D6A700638C060658
:1052D000B306D40003C606009306D0056314D606B1
:1052E0009306C00063F0E60683D7C7003304F400DA
:1052F000638A070483270400930640003304F40004
:1053000083270400B307F44003D7070063FAE604D9
:1053100083D647001306000063860600B306D40058
:1053200003A606002320C5009306600063FAE60288
:1053300083D76700638607023304F40083270400E1
:105340002322F5008320C1000324810023A0A400B0
:105350008324410013050000130101016780000050
:10536000930700002322F5006FF0DFFD1305000016
:1053700067800000130101FE232C8100232A910085
:105380002328210123263101232441012322510115
:10539000232E110023A00600930405009389050025
:1053A00013890600130A0600EFC0173E83A7040006
:1053B0009305800013040500B387F44003D707006A
:1053C000930A100063F6E50083D687006390060613
:1053D0009305E00963C4850693060002630ED406B4
:1053E00083A7090013860A009305040083A707001A
:1053F00013850900E7800700930705002320A90013
:10540000130500006386070A8320C101032481017C
:1054100083244101032901018329C100032A81005A
:10542000832A41001301010267800000B386D40083
:105430009305E00983AA0600E3D085FAB7A50940E1
:1054400013060400938585ED13050A00EFD0CF9372
:10545000130510006FF05FFB9306600063FEE60229
:1054600083D56700638A050283A70900B384B4006B
:1054700083A5040083A7470013860A00B385B40000
:105480009385450013850900E78007002320A900C4
:10549000133515006FF05FF7B7A50940938505FD3B
:1054A00013050A00EFD04F8E130510006FF0DFF5E3
:1054B000634A0402B7A50940131424009385C577F5
:1054C0003304B40003260400B7A5094093860A00FC
:1054D0009385C5F213050A00EFD00F8B130510005A
:1054E0006FF09FF237A60840130686236FF0DFFDAA
:1054F000635EB008130101FE93952500232C810003
:10550000232A910023263101232E11002328210173
:105510001304050093040600B309B5000329040031
:105520009305000013050900EFD0C736634AA002B7
:105530009307000023A0F400130444009384440064
:10554000E39E89FC8320C10103248101832441015E
:10555000032901018329C1001301010267800000B2
:1055600023A024011304440093844400E39889FA9F
:105570008320C10103248101832441010329010106
:105580008329C100130101026780000067800000C9
:10559000635CB00A130101FEB7770A402322510170
:1055A00083AAC706B7770A402324410103AA070745
:1055B00093952500232C81002328210123263101E6
:1055C000232E1100232A910013040500130906005D
:1055D000B309B5008324040093850A0013850400F1
:1055E000EFD0472B9307050093050A0013850400AD
:1055F0006340F004EFD0072A634EA0022320490144
:105600001304440013094900E31634FD8320C1014B
:105610000324810183244101032901018329C1005D
:10562000032A8100832A41001301010267800000E0
:1056300093840A00232099001304440013094900AD
:10564000E39A89F86FF09FFC678000006354B00C08
:10565000130101FEB7770A402324410103AA47073B
:1056600093952500232C8100232821012326310135
:10567000232E1100232A91001304050013090600AC
:10568000B309B5008324040093050A0013850400C0
:10569000EFD0472093070500930500001385040011
:1056A0006340F004EFD0071F634EA0029307000091
:1056B0002320F9001304440013094900E31434FDC6
:1056C0008320C101032481018324410103290101B5
:1056D0008329C100032A81001301010267800000B1
:1056E00093040A002320990013044400130949007D
:1056F000E39A89F88320C1010324810183244101B5
:10570000032901018329C100032A81001301010239
:105710006780000067800000635EB004130101FF32
:105720009395250023248100232291002320210129
:105730002326110013040500930406003309B50065
:10574000032504009384440013044400132505003A
:10575000EFD0D75823AEA4FEE31489FE8320C10006
:105760000324810083244100032901001301010166
:1057700067800000678000006354B006830705005F
:10578000130710009397C70193D7C7412300F60072
:105790006388E5041306160093060500130700004E
:1057A0006F00C00183870600130626009397C70188
:1057B00093D7C741A30FF6FE6384050383870600D2
:1057C000130807001307270093D747409356174045
:1057D0002300F600B306D50013083800E344B7FCF5
:1057E00067800000130101FE232C8100232A910011
:1057F00013840600930406009306000013060000BD
:105800002328210123263101232E110093090500AD
:1058100013890500EFD0871E6314050223A004003E
:105820008320C1012320040003248101832441013A
:10583000032901018329C1001301010267800000CF
:10584000130604001385090093050900EF00D8141E
:10585000B7770A4003A6870783A6C707EFE0C741CB
:10586000EF201848EFD017596340B006638A05044B
:105870003707008083270400630AE502130710FE40
:1058800063D6E70023200400130500008320C10134
:105890000324810123A0A4000329010183244101E1
:1058A0008329C1001301010267800000E39805FC11
:1058B000938717002320F400370500406FF01FFC8A
:1058C000B7070080E3F6A7FAEFF0C704130101FD64
:1058D000B7770A4023202103232E310113890600C4
:1058E0009309060083A6470803A60708232481021C
:1058F000232291022326110293040500138405003C
:10590000EFD00710635805081385040093050400C1
:105910001306000093060000EFD0070F635CA0069B
:105920001306C1001385040093050400EF00D80698
:10593000B7770A4003A6870783A6C707EFE0C733F8
:10594000EF20183AEFD0174B6346B004638005068A
:10595000370700808327C1006300E504130710FEAA
:1059600063D6E70223A00900930700008320C10249
:10597000032481022320F900832441020329010228
:105980008329C101130101036780000023A0A9003E
:10599000E35EF0FCEFE01778E39205FC93871700D5
:1059A0002326F100370500406FF05FFBB70700804A
:1059B000E3F0A7FA6FF01FFE130101FD2328610138
:1059C000130B0500370500803355E500232611022F
:1059D000232481022322910223202103232E31013B
:1059E000232C410193890700232A510123267101A9
:1059F000138A0500938A060093040800930B06009F
:105A0000EFE05723130905001384050093860A006D
:105A100013860B0093050A0013050B00EFE0C72562
:105A2000130605009386050013050900930504007D
:105A3000EFE08724B7770A4003A9470A03AA070AB9
:105A4000930A05009306090013060A001384050053
:105A5000EFC0977B6346A006B7770A4003A6070806
:105A600083A6470813850A0093050400EFC0D77981
:105A70006352A00A13850A00930504001306000070
:105A800093060000EFC097776310050423A0090078
:105A900023A004008320C102032481028324410245
:105AA000032901028329C101032A8101832A4101BB
:105AB000032B0101832BC100130101036780000048
:105AC000930A0A00130409001386040013850A00D0
:105AD00093050400EF00486CB7770A4003A68707D8
